:100000000C9463000C948B010C9480000C94800081
:100010000C9480000C9480000C9480000C94800060
:100020000C9480000C9480000C9480000C94800050
:100030000C9480000C9480000C9480000C94800040
:100040000C9480000C9480000C9480000C94800030
:100050000C9480000C9480000C9480000C94800020
:100060000C9480000C9480000902120001010080B1
:100070001909040000000000000012011001FF0037
:100080000008C016DC05000101020001160355003E
:10009000530042006500780061006D0070006C0044
:1000A0006500200363006F006400650061006E005E
:1000B00064006C006900660065002E0063006F003C
:1000C0006D000403090411241FBECFEFD8E0DEBF8A
:1000D000CDBF11E0A0E0B1E0EAEDF5E002C005908F
:1000E0000D92A230B107D9F721E0A2E0B1E001C042
:1000F0001D92AD32B207E1F70E94CC020C94EB02E4
:100100000C940000CF93DF9380911301835087FDFF
:1001100028C090910F019D3211F5883001F5809132
:100120001001CCE0D0E0C81BD109C95EDE4F83ECE2
:10013000809303018AE58093010110920201888176
:10014000807609F462C0CE010E94B8029F819111AD
:1001500004C09E81981708F4892F809300011092A3
:1001600013018091010184FF43C0809100018F3F02
:1001700009F43EC0C82F893008F0C8E08C1B80937A
:1001800000018091030198E8892780930301CC2323
:1001900011F180911101909112012091020126FF2D
:1001A00091C0A3E0B1E02C2FAC0143505140FA01C3
:1001B000EA0FFB1FE4911196EC93119721501196D1
:1001C0002111F5CF01962FEF2C0F820F911D9093E7
:1001D0001201809311016C2F84E091E00E9487014D
:1001E000CC5FCC3019F08FEF80930001C0930101F8
:1001F00084E199B19C7031F48150D9F710921401C7
:1002000010920E01DF91CF9108952A8110920C0176
:10021000998191110AC010920D012CE031E082E029
:10022000309312012093110191CF953029F420933E
:1002300014012CE031E0F4CF963099F59B81913098
:1002400059F48AE790E0909312018093110182E1C2
:1002500090E4909302017ACF923019F488E690E00E
:10026000F2CF9330A9F7211108C082EC90E090936F
:1002700012018093110184E0EBCF213041F482EA36
:1002800090E0909312018093110180E2E1CF22303F
:10029000F9F68CE890E0909312018093110186E1C9
:1002A000D7CF983059F0993019F420931601C1CF67
:1002B00081E09A3009F4BDCF80E0BBCF26E131E088
:1002C00081E0AECFE4E0F1E0DC012C2F3D913193F1
:1002D0002150E1F777CFE9E6F0E08081826080830A
:1002E000E89A0895A82FB92F80E090E041E050EA05
:1002F000609530E009C02D9182279795879510F081
:1003000084279527305EC8F36F5FA8F30895EADF6E
:100310008D939D930895CF93CFB7CF93C3954B9B68
:10032000E9F74B9B09C04B9B07C04B9B05C04B9B00
:1003300003C04B9B01C0A1C0DF93C0911001DD271A
:10034000C95EDE4F4B9B02C0DF91EBCF2F930F9323
:100350001F9309B12FEF03FB20F94F933F9319B17E
:100360004FEF012703FB21F93BE031C04E7F012F06
:1003700019B1216028C0102F4D7F2260000009B103
:1003800029C04B7F2460012F000019B12BC019B187
:10039000477F28602AC04F7E09B120612CC04F7D65
:1003A00019B120622FC04F7B09B1206432C04227AF
:1003B00009B149934FEF0000102713FB20F919B141
:1003C0001C70C9F1297F91F2012703FB21F909B1C2
:1003D000237F89F2315058F1102713FB22F919B10C
:1003E000277E79F2012703FB23F92F7C81F209B1E3
:1003F000102713FB24F92F7971F200C019B10127DE
:1004000003FB25F92F7359F200C009B1102713FB24
:1004100026F9223040F200C019B1012703FB27F969
:10042000243028F64F77206819B10000F9CF11E089
:100430001CBB002717C03B503195C31BD04011E0B7
:100440001CBB0881033CE9F00B34D9F020910E016C
:100450001981110F1213EDCF093641F10D3211F050
:10046000013E39F7009315013F914F911F910F9174
:100470002F91DF91CCB3C0FD51CFCF91CFBFCF91A2
:10048000189520911501222379F31091130111235E
:1004900011F5343012F13093130120930F011091B4
:1004A00010013BE0311B3093100117C00091130184
:1004B00001308CF40AE53091010134FD10C0009345
:1004C0000101C3E0D1E00FC02795A8F45150A9F471
:1004D000220F0000F9CF4AE503C042ED01C0432FCF
:1004E000C4E1D0E032E01AB11C605B9A1AB90BB1DA
:1004F00020E41CE05F93012756E00BB9279520F418
:10050000515021F4220FF9CF012756E000003B5A49
:100510000BB9D0F2279528F4515029F4220F00008E
:10052000F9CF012756E027950BB920F4515021F45B
:10053000220FF9CF012756E0299133230BB921F679
:10054000037F10911401110FC651D0400BB911F067
:1005500010930E0111E01CBB08601AB1137F402FED
:10056000437F5F9100C000C00BB91AB94BB97CCF73
:10057000FC018181882329F0813009F4289A80E0E8
:1005800008952898FCCFF894A89584B7877F84BFF6
:10059000109260007894089581E084B99EE088E12B
:1005A0000FB6F894A895809360000FBE90936000FA
:1005B0000E946B01539A8AEFA895EFE6F7E1319715
:1005C000F1F700C000008150B9F753987894A895CE
:0A05D0000E948200FCCFF894FFCFD8
:0205DA00FF5AC6
:00000001FF
